{
  "_format": "hh3-artifact-1",
  "contractName": "CertificateRegistry",
  "sourceName": "contracts/CertificateRegistry.sol",
  "abi": [
    {
      "inputs": [
        {
          "internalType": "address",
          "name": "registryAddress",
          "type": "address"
        }
      ],
      "stateMutability": "nonpayable",
      "type": "constructor"
    },
    {
      "inputs": [],
      "name": "CertificateAlreadyExists",
      "type": "error"
    },
    {
      "inputs": [],
      "name": "CertificateAlreadyRevoked",
      "type": "error"
    },
    {
      "inputs": [],
      "name": "CertificateNotFound",
      "type": "error"
    },
    {
      "inputs": [],
      "name": "UnauthorizedIssuer",
      "type": "error"
    },
    {
      "inputs": [],
      "name": "UniversityNotRegistered",
      "type": "error"
    },
    {
      "anonymous": false,
      "inputs": [
        {
          "indexed": true,
          "internalType": "string",
          "name": "certificateId",
          "type": "string"
        },
        {
          "indexed": true,
          "internalType": "address",
          "name": "issuer",
          "type": "address"
        }
      ],
      "name": "CertificateIssued",
      "type": "event"
    },
    {
      "anonymous": false,
      "inputs": [
        {
          "indexed": true,
          "internalType": "string",
          "name": "certificateId",
          "type": "string"
        },
        {
          "indexed": true,
          "internalType": "address",
          "name": "issuer",
          "type": "address"
        }
      ],
      "name": "CertificateRevoked",
      "type": "event"
    },
    {
      "inputs": [
        {
          "internalType": "string",
          "name": "certificateId",
          "type": "string"
        }
      ],
      "name": "certificateExists",
      "outputs": [
        {
          "internalType": "bool",
          "name": "",
          "type": "bool"
        }
      ],
      "stateMutability": "view",
      "type": "function"
    },
    {
      "inputs": [
        {
          "internalType": "string",
          "name": "certificateId",
          "type": "string"
        }
      ],
      "name": "getCertificate",
      "outputs": [
        {
          "components": [
            {
              "internalType": "string",
              "name": "certificateId",
              "type": "string"
            },
            {
              "internalType": "bytes32",
              "name": "documentHash",
              "type": "bytes32"
            },
            {
              "internalType": "string",
              "name": "ipfsCID",
              "type": "string"
            },
            {
              "internalType": "address",
              "name": "issuer",
              "type": "address"
            },
            {
              "internalType": "uint64",
              "name": "issuedAt",
              "type": "uint64"
            },
            {
              "internalType": "bool",
              "name": "revoked",
              "type": "bool"
            }
          ],
          "internalType": "struct CertificateRegistry.Certificate",
          "name": "",
          "type": "tuple"
        }
      ],
      "stateMutability": "view",
      "type": "function"
    },
    {
      "inputs": [
        {
          "internalType": "string",
          "name": "certificateId",
          "type": "string"
        },
        {
          "internalType": "bytes32",
          "name": "documentHash",
          "type": "bytes32"
        },
        {
          "internalType": "string",
          "name": "ipfsCID",
          "type": "string"
        }
      ],
      "name": "issueCertificate",
      "outputs": [],
      "stateMutability": "nonpayable",
      "type": "function"
    },
    {
      "inputs": [
        {
          "internalType": "string",
          "name": "certificateId",
          "type": "string"
        }
      ],
      "name": "revokeCertificate",
      "outputs": [],
      "stateMutability": "nonpayable",
      "type": "function"
    },
    {
      "inputs": [],
      "name": "universityRegistry",
      "outputs": [
        {
          "internalType": "contract IUniversityRegistry",
          "name": "",
          "type": "address"
        }
      ],
      "stateMutability": "view",
      "type": "function"
    },
    {
      "inputs": [
        {
          "internalType": "string",
          "name": "certificateId",
          "type": "string"
        },
        {
          "internalType": "bytes32",
          "name": "documentHash",
          "type": "bytes32"
        }
      ],
      "name": "verifyCertificate",
      "outputs": [
        {
          "internalType": "bool",
          "name": "",
          "type": "bool"
        }
      ],
      "stateMutability": "view",
      "type": "function"
    }
  ],
  "bytecode": "0x60a060405234801561000f575f5ffd5b50604051611527380380611527833981810160405281019061003191906100c9565b8073ffffffffffffffffffffffffffffffffffffffff1660808173ffffffffffffffffffffffffffffffffffffffff1681525050506100f4565b5f5ffd5b5f73ffffffffffffffffffffffffffffffffffffffff82169050919050565b5f6100988261006f565b9050919050565b6100a88161008e565b81146100b2575f5ffd5b50565b5f815190506100c38161009f565b92915050565b5f602082840312156100de576100dd61006b565b5b5f6100eb848285016100b5565b91505092915050565b6080516114146101135f395f818161014b015261090801526114145ff3fe608060405234801561000f575f5ffd5b506004361061005f575f3560e01c8062235df1146100635780630655f0371461007f57806307b86b73146100af578063142e1542146100df57806336b1d37f146100fb578063ed0f2e7514610119575b5f5ffd5b61007d60048036038101906100789190610c98565b610149565b005b61009960048036038101906100949190610d29565b6104b2565b6040516100a69190610d8e565b60405180910390f35b6100c960048036038101906100c49190610da7565b6104ff565b6040516100d69190610d8e565b60405180910390f35b6100f960048036038101906100f49190610d29565b61073b565b005b610103610906565b6040516101109190610e7e565b60405180910390f35b610133600480360381019061012e9190610d29565b61092a565b6040516101409190610ff4565b60405180910390f35b7f000000000000000000000000000000000000000000000000000000000000000073ffffffffffffffffffffffffffffffffffffffff1663c3c5a547336040518263ffffffff1660e01b81526004016101a29190611023565b602060405180830381865afa1580156101bd573d5f5f3e3d5ffd5b505050506040513d601f19601f820116820180604052508101906101e19190611066565b610217576040517f4c7c9aa600000000000000000000000000000000000000000000000000000000815260040160405180910390fd5b5f5f86866040516102299291906110cd565b908152602001604051809103902060030160149054906101000a900467ffffffffffffffff1667ffffffffffffffff1614610290576040517f5a0e33b500000000000000000000000000000000000000000000000000000000815260040160405180910390fd5b6040518060c0016040528086868080601f0160208091040260200160405190810160405280939291908181526020018383808284375f81840152601f19601f82011690508083019250505050505050815260200184815260200183838080601f0160208091040260200160405190810160405280939291908181526020018383808284375f81840152601f19601f8201169050808301925050505050505081526020013373ffffffffffffffffffffffffffffffffffffffff1681526020014267ffffffffffffffff1681526020015f15158152505f86866040516103769291906110cd565b90815260200160405180910390205f820151815f019081610397919061130f565b506020820151816001015560408201518160020190816103b7919061130f565b506060820151816003015f6101000a81548173ffffffffffffffffffffffffffffffffffffffff021916908373ffffffffffffffffffffffffffffffffffffffff16021790555060808201518160030160146101000a81548167ffffffffffffffff021916908367ffffffffffffffff16021790555060a082015181600301601c6101000a81548160ff0219169083151502179055509050503373ffffffffffffffffffffffffffffffffffffffff1685856040516104779291906110cd565b60405180910390207fada8a8d27187fe2bc19217fb8e0301fa8380a4d850748240b8d735f2a8fc062160405160405180910390a35050505050565b5f5f5f84846040516104c59291906110cd565b908152602001604051809103902060030160149054906101000a900467ffffffffffffffff1667ffffffffffffffff161415905092915050565b5f5f5f85856040516105129291906110cd565b90815260200160405180910390206040518060c00160405290815f8201805461053a9061113f565b80601f01602080910402602001604051908101604052809291908181526020018280546105669061113f565b80156105b15780601f10610588576101008083540402835291602001916105b1565b820191905f5260205f20905b81548152906001019060200180831161059457829003601f168201915b50505050508152602001600182015481526020016002820180546105d49061113f565b80601f01602080910402602001604051908101604052809291908181526020018280546106009061113f565b801561064b5780601f106106225761010080835404028352916020019161064b565b820191905f5260205f20905b81548152906001019060200180831161062e57829003601f168201915b50505050508152602001600382015f9054906101000a900473ffffffffffffffffffffffffffffffffffffffff1673ffffffffffffffffffffffffffffffffffffffff1673ffffffffffffffffffffffffffffffffffffffff1681526020016003820160149054906101000a900467ffffffffffffffff1667ffffffffffffffff1667ffffffffffffffff16815260200160038201601c9054906101000a900460ff16151515158152505090505f816080015167ffffffffffffffff1603610716575f915050610734565b8060a0015115610729575f915050610734565b828160200151149150505b9392505050565b5f5f838360405161074d9291906110cd565b908152602001604051809103902090505f8160030160149054906101000a900467ffffffffffffffff1667ffffffffffffffff16036107b8576040517f761e55e700000000000000000000000000000000000000000000000000000000815260040160405180910390fd5b80600301601c9054906101000a900460ff1615610801576040517fdd01e6e800000000000000000000000000000000000000000000000000000000815260040160405180910390fd5b3373ffffffffffffffffffffffffffffffffffffffff16816003015f9054906101000a900473ffffffffffffffffffffffffffffffffffffffff1673ffffffffffffffffffffffffffffffffffffffff1614610889576040517fb41ba2d600000000000000000000000000000000000000000000000000000000815260040160405180910390fd5b600181600301601c6101000a81548160ff0219169083151502179055503373ffffffffffffffffffffffffffffffffffffffff1683836040516108cd9291906110cd565b60405180910390207f7b87df98e4ff33f07a9fbda6f93a6b69c498e48444877da8c54a83d3a43aee5b60405160405180910390a3505050565b7f000000000000000000000000000000000000000000000000000000000000000081565b610932610ba8565b5f5f84846040516109449291906110cd565b908152602001604051809103902060030160149054906101000a900467ffffffffffffffff1667ffffffffffffffff16036109ab576040517f761e55e700000000000000000000000000000000000000000000000000000000815260040160405180910390fd5b5f83836040516109bc9291906110cd565b90815260200160405180910390206040518060c00160405290815f820180546109e49061113f565b80601f0160208091040260200160405190810160405280929190818152602001828054610a109061113f565b8015610a5b5780601f10610a3257610100808354040283529160200191610a5b565b820191905f5260205f20905b815481529060010190602001808311610a3e57829003601f168201915b5050505050815260200160018201548152602001600282018054610a7e9061113f565b80601f0160208091040260200160405190810160405280929190818152602001828054610aaa9061113f565b8015610af55780601f10610acc57610100808354040283529160200191610af5565b820191905f5260205f20905b815481529060010190602001808311610ad857829003601f168201915b50505050508152602001600382015f9054906101000a900473ffffffffffffffffffffffffffffffffffffffff1673ffffffffffffffffffffffffffffffffffffffff1673ffffffffffffffffffffffffffffffffffffffff1681526020016003820160149054906101000a900467ffffffffffffffff1667ffffffffffffffff1667ffffffffffffffff16815260200160038201601c9054906101000a900460ff161515151581525050905092915050565b6040518060c00160405280606081526020015f8152602001606081526020015f73ffffffffffffffffffffffffffffffffffffffff1681526020015f67ffffffffffffffff1681526020015f151581525090565b5f5ffd5b5f5ffd5b5f5ffd5b5f5ffd5b5f5ffd5b5f5f83601f840112610c2557610c24610c04565b5b8235905067ffffffffffffffff811115610c4257610c41610c08565b5b602083019150836001820283011115610c5e57610c5d610c0c565b5b9250929050565b5f819050919050565b610c7781610c65565b8114610c81575f5ffd5b50565b5f81359050610c9281610c6e565b92915050565b5f5f5f5f5f60608688031215610cb157610cb0610bfc565b5b5f86013567ffffffffffffffff811115610cce57610ccd610c00565b5b610cda88828901610c10565b95509550506020610ced88828901610c84565b935050604086013567ffffffffffffffff811115610d0e57610d0d610c00565b5b610d1a88828901610c10565b92509250509295509295909350565b5f5f60208385031215610d3f57610d3e610bfc565b5b5f83013567ffffffffffffffff811115610d5c57610d5b610c00565b5b610d6885828601610c10565b92509250509250929050565b5f8115159050919050565b610d8881610d74565b82525050565b5f602082019050610da15f830184610d7f565b92915050565b5f5f5f60408486031215610dbe57610dbd610bfc565b5b5f84013567ffffffffffffffff811115610ddb57610dda610c00565b5b610de786828701610c10565b93509350506020610dfa86828701610c84565b9150509250925092565b5f73ffffffffffffffffffffffffffffffffffffffff82169050919050565b5f819050919050565b5f610e46610e41610e3c84610e04565b610e23565b610e04565b9050919050565b5f610e5782610e2c565b9050919050565b5f610e6882610e4d565b9050919050565b610e7881610e5e565b82525050565b5f602082019050610e915f830184610e6f565b92915050565b5f81519050919050565b5f82825260208201905092915050565b8281835e5f83830152505050565b5f601f19601f8301169050919050565b5f610ed982610e97565b610ee38185610ea1565b9350610ef3818560208601610eb1565b610efc81610ebf565b840191505092915050565b610f1081610c65565b82525050565b5f610f2082610e04565b9050919050565b610f3081610f16565b82525050565b5f67ffffffffffffffff82169050919050565b610f5281610f36565b82525050565b610f6181610d74565b82525050565b5f60c083015f8301518482035f860152610f818282610ecf565b9150506020830151610f966020860182610f07565b5060408301518482036040860152610fae8282610ecf565b9150506060830151610fc36060860182610f27565b506080830151610fd66080860182610f49565b5060a0830151610fe960a0860182610f58565b508091505092915050565b5f6020820190508181035f83015261100c8184610f67565b905092915050565b61101d81610f16565b82525050565b5f6020820190506110365f830184611014565b92915050565b61104581610d74565b811461104f575f5ffd5b50565b5f815190506110608161103c565b92915050565b5f6020828403121561107b5761107a610bfc565b5b5f61108884828501611052565b91505092915050565b5f81905092915050565b828183375f83830152505050565b5f6110b48385611091565b93506110c183858461109b565b82840190509392505050565b5f6110d98284866110a9565b91508190509392505050565b7f4e487b71000000000000000000000000000000000000000000000000000000005f52604160045260245ffd5b7f4e487b71000000000000000000000000000000000000000000000000000000005f52602260045260245ffd5b5f600282049050600182168061115657607f821691505b60208210810361116957611168611112565b5b50919050565b5f819050815f5260205f209050919050565b5f6020601f8301049050919050565b5f82821b905092915050565b5f600883026111cb7fffffffffffffffffffffffffffffffffffffffffffffffffffffffffffffffff82611190565b6111d58683611190565b95508019841693508086168417925050509392505050565b5f819050919050565b5f61121061120b611206846111ed565b610e23565b6111ed565b9050919050565b5f819050919050565b611229836111f6565b61123d61123582611217565b84845461119c565b825550505050565b5f5f905090565b611254611245565b61125f818484611220565b505050565b5b81811015611282576112775f8261124c565b600181019050611265565b5050565b601f8211156112c7576112988161116f565b6112a184611181565b810160208510156112b0578190505b6112c46112bc85611181565b830182611264565b50505b505050565b5f82821c905092915050565b5f6112e75f19846008026112cc565b1980831691505092915050565b5f6112ff83836112d8565b9150826002028217905092915050565b61131882610e97565b67ffffffffffffffff811115611331576113306110e5565b5b61133b825461113f565b611346828285611286565b5f60209050601f831160018114611377575f8415611365578287015190505b61136f85826112f4565b8655506113d6565b601f1984166113858661116f565b5f5b828110156113ac57848901518255600182019150602085019450602081019050611387565b868310156113c957848901516113c5601f8916826112d8565b8355505b6001600288020188555050505b50505050505056fea26469706673582212205bfdd806f33ee7ac700df67c805ee8d1ef40ac13d2daa316fd38b7e9ff6345d964736f6c634300081c0033",
  "linkReferences": {},
  "deployedLinkReferences": {},
  "immutableReferences": {
    "206": [
      {
        "length": 32,
        "start": 331
      },
      {
        "length": 32,
        "start": 2312
      }
    ]
  },
  "inputSourceName": "project/contracts/CertificateRegistry.sol",
  "buildInfoId": "solc-0_8_28-1fe965bd909cdcef56757312bf0894bb2ea870d1"
}