{
  "_format": "hh3-artifact-1",
  "contractName": "UniversityRegistry",
  "sourceName": "contracts/UniversityRegistry.sol",
  "abi": [
    {
      "inputs": [
        {
          "internalType": "address",
          "name": "initialOwner",
          "type": "address"
        }
      ],
      "stateMutability": "nonpayable",
      "type": "constructor"
    },
    {
      "inputs": [],
      "name": "EmptyField",
      "type": "error"
    },
    {
      "inputs": [],
      "name": "InvalidAddress",
      "type": "error"
    },
    {
      "inputs": [
        {
          "internalType": "address",
          "name": "owner",
          "type": "address"
        }
      ],
      "name": "OwnableInvalidOwner",
      "type": "error"
    },
    {
      "inputs": [
        {
          "internalType": "address",
          "name": "account",
          "type": "address"
        }
      ],
      "name": "OwnableUnauthorizedAccount",
      "type": "error"
    },
    {
      "inputs": [],
      "name": "UniversityAlreadyRegistered",
      "type": "error"
    },
    {
      "inputs": [],
      "name": "UniversityNotRegistered",
      "type": "error"
    },
    {
      "anonymous": false,
      "inputs": [
        {
          "indexed": true,
          "internalType": "address",
          "name": "previousOwner",
          "type": "address"
        },
        {
          "indexed": true,
          "internalType": "address",
          "name": "newOwner",
          "type": "address"
        }
      ],
      "name": "OwnershipTransferred",
      "type": "event"
    },
    {
      "anonymous": false,
      "inputs": [
        {
          "indexed": true,
          "internalType": "address",
          "name": "university",
          "type": "address"
        }
      ],
      "name": "UniversityDeactivated",
      "type": "event"
    },
    {
      "anonymous": false,
      "inputs": [
        {
          "indexed": true,
          "internalType": "address",
          "name": "university",
          "type": "address"
        },
        {
          "indexed": false,
          "internalType": "string",
          "name": "name",
          "type": "string"
        }
      ],
      "name": "UniversityRegistered",
      "type": "event"
    },
    {
      "anonymous": false,
      "inputs": [
        {
          "indexed": true,
          "internalType": "address",
          "name": "university",
          "type": "address"
        }
      ],
      "name": "UniversityUpdated",
      "type": "event"
    },
    {
      "inputs": [
        {
          "internalType": "address",
          "name": "wallet",
          "type": "address"
        }
      ],
      "name": "deactivateUniversity",
      "outputs": [],
      "stateMutability": "nonpayable",
      "type": "function"
    },
    {
      "inputs": [
        {
          "internalType": "address",
          "name": "wallet",
          "type": "address"
        }
      ],
      "name": "getUniversity",
      "outputs": [
        {
          "components": [
            {
              "internalType": "string",
              "name": "name",
              "type": "string"
            },
            {
              "internalType": "string",
              "name": "email",
              "type": "string"
            },
            {
              "internalType": "string",
              "name": "website",
              "type": "string"
            },
            {
              "internalType": "bool",
              "name": "isActive",
              "type": "bool"
            },
            {
              "internalType": "uint64",
              "name": "registeredAt",
              "type": "uint64"
            }
          ],
          "internalType": "struct UniversityRegistry.University",
          "name": "",
          "type": "tuple"
        }
      ],
      "stateMutability": "view",
      "type": "function"
    },
    {
      "inputs": [
        {
          "internalType": "address",
          "name": "wallet",
          "type": "address"
        }
      ],
      "name": "isRegistered",
      "outputs": [
        {
          "internalType": "bool",
          "name": "",
          "type": "bool"
        }
      ],
      "stateMutability": "view",
      "type": "function"
    },
    {
      "inputs": [],
      "name": "owner",
      "outputs": [
        {
          "internalType": "address",
          "name": "",
          "type": "address"
        }
      ],
      "stateMutability": "view",
      "type": "function"
    },
    {
      "inputs": [
        {
          "internalType": "address",
          "name": "wallet",
          "type": "address"
        },
        {
          "internalType": "string",
          "name": "name",
          "type": "string"
        },
        {
          "internalType": "string",
          "name": "email",
          "type": "string"
        },
        {
          "internalType": "string",
          "name": "website",
          "type": "string"
        }
      ],
      "name": "registerUniversity",
      "outputs": [],
      "stateMutability": "nonpayable",
      "type": "function"
    },
    {
      "inputs": [],
      "name": "renounceOwnership",
      "outputs": [],
      "stateMutability": "nonpayable",
      "type": "function"
    },
    {
      "inputs": [
        {
          "internalType": "address",
          "name": "newOwner",
          "type": "address"
        }
      ],
      "name": "transferOwnership",
      "outputs": [],
      "stateMutability": "nonpayable",
      "type": "function"
    },
    {
      "inputs": [
        {
          "internalType": "address",
          "name": "wallet",
          "type": "address"
        },
        {
          "internalType": "string",
          "name": "email",
          "type": "string"
        },
        {
          "internalType": "string",
          "name": "website",
          "type": "string"
        }
      ],
      "name": "updateUniversity",
      "outputs": [],
      "stateMutability": "nonpayable",
      "type": "function"
    }
  ],
  "bytecode": "0x608060405234801561000f575f5ffd5b50604051611772380380611772833981810160405281019061003191906101d7565b805f73ffffffffffffffffffffffffffffffffffffffff168173ffffffffffffffffffffffffffffffffffffffff16036100a2575f6040517f1e4fbdf70000000000000000000000000000000000000000000000000000000081526004016100999190610211565b60405180910390fd5b6100b1816100b860201b60201c565b505061022a565b5f5f5f9054906101000a900473ffffffffffffffffffffffffffffffffffffffff169050815f5f6101000a81548173ffffffffffffffffffffffffffffffffffffffff021916908373ffffffffffffffffffffffffffffffffffffffff1602179055508173ffffffffffffffffffffffffffffffffffffffff168173ffffffffffffffffffffffffffffffffffffffff167f8be0079c531659141344cd1fd0a4f28419497f9722a3daafe3b4186f6b6457e060405160405180910390a35050565b5f5ffd5b5f73ffffffffffffffffffffffffffffffffffffffff82169050919050565b5f6101a68261017d565b9050919050565b6101b68161019c565b81146101c0575f5ffd5b50565b5f815190506101d1816101ad565b92915050565b5f602082840312156101ec576101eb610179565b5b5f6101f9848285016101c3565b91505092915050565b61020b8161019c565b82525050565b5f6020820190506102245f830184610202565b92915050565b61153b806102375f395ff3fe608060405234801561000f575f5ffd5b5060043610610086575f3560e01c8063ba3c6a0811610059578063ba3c6a08146100fe578063c3c5a5471461011a578063d2a1236b1461014a578063f2fde38b1461016657610086565b806336815cb71461008a578063715018a6146100a65780638da5cb5b146100b057806394a59ea6146100ce575b5f5ffd5b6100a4600480360381019061009f9190610da3565b610182565b005b6100ae6102f7565b005b6100b861030a565b6040516100c59190610e43565b60405180910390f35b6100e860048036038101906100e39190610e5c565b610331565b6040516100f59190610fb4565b60405180910390f35b61011860048036038101906101139190610e5c565b610606565b005b610134600480360381019061012f9190610e5c565b61072e565b6040516101419190610fe3565b60405180910390f35b610164600480360381019061015f9190610ffc565b610783565b005b610180600480360381019061017b9190610e5c565b610ad4565b005b61018a610b58565b60015f8673ffffffffffffffffffffffffffffffffffffffff1673ffffffffffffffffffffffffffffffffffffffff1681526020019081526020015f206003015f9054906101000a900460ff1661020d576040517f4c7c9aa600000000000000000000000000000000000000000000000000000000815260040160405180910390fd5b838360015f8873ffffffffffffffffffffffffffffffffffffffff1673ffffffffffffffffffffffffffffffffffffffff1681526020019081526020015f20600101918261025c9291906112fd565b50818160015f8873ffffffffffffffffffffffffffffffffffffffff1673ffffffffffffffffffffffffffffffffffffffff1681526020019081526020015f2060020191826102ac9291906112fd565b508473ffffffffffffffffffffffffffffffffffffffff167f2a8d57234b5d666d6e69f4776237c96df6e4c97e0434902827082d808732c5b360405160405180910390a25050505050565b6102ff610b58565b6103085f610bdf565b565b5f5f5f9054906101000a900473ffffffffffffffffffffffffffffffffffffffff16905090565b610339610ca7565b60015f8373ffffffffffffffffffffffffffffffffffffffff1673ffffffffffffffffffffffffffffffffffffffff1681526020019081526020015f206003015f9054906101000a900460ff166103bc576040517f4c7c9aa600000000000000000000000000000000000000000000000000000000815260040160405180910390fd5b60015f8373ffffffffffffffffffffffffffffffffffffffff1673ffffffffffffffffffffffffffffffffffffffff1681526020019081526020015f206040518060a00160405290815f8201805461041390611124565b80601f016020809104026020016040519081016040528092919081815260200182805461043f90611124565b801561048a5780601f106104615761010080835404028352916020019161048a565b820191905f5260205f20905b81548152906001019060200180831161046d57829003601f168201915b505050505081526020016001820180546104a390611124565b80601f01602080910402602001604051908101604052809291908181526020018280546104cf90611124565b801561051a5780601f106104f15761010080835404028352916020019161051a565b820191905f5260205f20905b8154815290600101906020018083116104fd57829003601f168201915b5050505050815260200160028201805461053390611124565b80601f016020809104026020016040519081016040528092919081815260200182805461055f90611124565b80156105aa5780601f10610581576101008083540402835291602001916105aa565b820191905f5260205f20905b81548152906001019060200180831161058d57829003601f168201915b50505050508152602001600382015f9054906101000a900460ff161515151581526020016003820160019054906101000a900467ffffffffffffffff1667ffffffffffffffff1667ffffffffffffffff16815250509050919050565b61060e610b58565b60015f8273ffffffffffffffffffffffffffffffffffffffff1673ffffffffffffffffffffffffffffffffffffffff1681526020019081526020015f206003015f9054906101000a900460ff16610691576040517f4c7c9aa600000000000000000000000000000000000000000000000000000000815260040160405180910390fd5b5f60015f8373ffffffffffffffffffffffffffffffffffffffff1673ffffffffffffffffffffffffffffffffffffffff1681526020019081526020015f206003015f6101000a81548160ff0219169083151502179055508073ffffffffffffffffffffffffffffffffffffffff167f190876657aeb251835f605eec0c28996608f3125b5eafbf95517d50e4093de8660405160405180910390a250565b5f60015f8373ffffffffffffffffffffffffffffffffffffffff1673ffffffffffffffffffffffffffffffffffffffff1681526020019081526020015f206003015f9054906101000a900460ff169050919050565b61078b610b58565b5f73ffffffffffffffffffffffffffffffffffffffff168773ffffffffffffffffffffffffffffffffffffffff16036107f0576040517fe6c4247b00000000000000000000000000000000000000000000000000000000815260040160405180910390fd5b5f868690500361082c576040517f81daaa8000000000000000000000000000000000000000000000000000000000815260040160405180910390fd5b60015f8873ffffffffffffffffffffffffffffffffffffffff1673ffffffffffffffffffffffffffffffffffffffff1681526020019081526020015f206003015f9054906101000a900460ff16156108b0576040517fa69246de00000000000000000000000000000000000000000000000000000000815260040160405180910390fd5b6040518060a0016040528087878080601f0160208091040260200160405190810160405280939291908181526020018383808284375f81840152601f19601f82011690508083019250505050505050815260200185858080601f0160208091040260200160405190810160405280939291908181526020018383808284375f81840152601f19601f82011690508083019250505050505050815260200183838080601f0160208091040260200160405190810160405280939291908181526020018383808284375f81840152601f19601f8201169050808301925050505050505081526020016001151581526020014267ffffffffffffffff1681525060015f8973ffffffffffffffffffffffffffffffffffffffff1673ffffffffffffffffffffffffffffffffffffffff1681526020019081526020015f205f820151815f0190816109fd91906113ca565b506020820151816001019081610a1391906113ca565b506040820151816002019081610a2991906113ca565b506060820151816003015f6101000a81548160ff02191690831515021790555060808201518160030160016101000a81548167ffffffffffffffff021916908367ffffffffffffffff1602179055509050508673ffffffffffffffffffffffffffffffffffffffff167f9e7aff20b8d74f44a6eab16e94b9ff91d18db8a3797b539571a31d90dc530d238787604051610ac39291906114e3565b60405180910390a250505050505050565b610adc610b58565b5f73ffffffffffffffffffffffffffffffffffffffff168173ffffffffffffffffffffffffffffffffffffffff1603610b4c575f6040517f1e4fbdf7000000000000000000000000000000000000000000000000000000008152600401610b439190610e43565b60405180910390fd5b610b5581610bdf565b50565b610b60610ca0565b73ffffffffffffffffffffffffffffffffffffffff16610b7e61030a565b73ffffffffffffffffffffffffffffffffffffffff1614610bdd57610ba1610ca0565b6040517f118cdaa7000000000000000000000000000000000000000000000000000000008152600401610bd49190610e43565b60405180910390fd5b565b5f5f5f9054906101000a900473ffffffffffffffffffffffffffffffffffffffff169050815f5f6101000a81548173ffffffffffffffffffffffffffffffffffffffff021916908373ffffffffffffffffffffffffffffffffffffffff1602179055508173ffffffffffffffffffffffffffffffffffffffff168173ffffffffffffffffffffffffffffffffffffffff167f8be0079c531659141344cd1fd0a4f28419497f9722a3daafe3b4186f6b6457e060405160405180910390a35050565b5f33905090565b6040518060a001604052806060815260200160608152602001606081526020015f151581526020015f67ffffffffffffffff1681525090565b5f5ffd5b5f5ffd5b5f73ffffffffffffffffffffffffffffffffffffffff82169050919050565b5f610d1182610ce8565b9050919050565b610d2181610d07565b8114610d2b575f5ffd5b50565b5f81359050610d3c81610d18565b92915050565b5f5ffd5b5f5ffd5b5f5ffd5b5f5f83601f840112610d6357610d62610d42565b5b8235905067ffffffffffffffff811115610d8057610d7f610d46565b5b602083019150836001820283011115610d9c57610d9b610d4a565b5b9250929050565b5f5f5f5f5f60608688031215610dbc57610dbb610ce0565b5b5f610dc988828901610d2e565b955050602086013567ffffffffffffffff811115610dea57610de9610ce4565b5b610df688828901610d4e565b9450945050604086013567ffffffffffffffff811115610e1957610e18610ce4565b5b610e2588828901610d4e565b92509250509295509295909350565b610e3d81610d07565b82525050565b5f602082019050610e565f830184610e34565b92915050565b5f60208284031215610e7157610e70610ce0565b5b5f610e7e84828501610d2e565b91505092915050565b5f81519050919050565b5f82825260208201905092915050565b8281835e5f83830152505050565b5f601f19601f8301169050919050565b5f610ec982610e87565b610ed38185610e91565b9350610ee3818560208601610ea1565b610eec81610eaf565b840191505092915050565b5f8115159050919050565b610f0b81610ef7565b82525050565b5f67ffffffffffffffff82169050919050565b610f2d81610f11565b82525050565b5f60a083015f8301518482035f860152610f4d8282610ebf565b91505060208301518482036020860152610f678282610ebf565b91505060408301518482036040860152610f818282610ebf565b9150506060830151610f966060860182610f02565b506080830151610fa96080860182610f24565b508091505092915050565b5f6020820190508181035f830152610fcc8184610f33565b905092915050565b610fdd81610ef7565b82525050565b5f602082019050610ff65f830184610fd4565b92915050565b5f5f5f5f5f5f5f6080888a03121561101757611016610ce0565b5b5f6110248a828b01610d2e565b975050602088013567ffffffffffffffff81111561104557611044610ce4565b5b6110518a828b01610d4e565b9650965050604088013567ffffffffffffffff81111561107457611073610ce4565b5b6110808a828b01610d4e565b9450945050606088013567ffffffffffffffff8111156110a3576110a2610ce4565b5b6110af8a828b01610d4e565b925092505092959891949750929550565b5f82905092915050565b7f4e487b71000000000000000000000000000000000000000000000000000000005f52604160045260245ffd5b7f4e487b71000000000000000000000000000000000000000000000000000000005f52602260045260245ffd5b5f600282049050600182168061113b57607f821691505b60208210810361114e5761114d6110f7565b5b50919050565b5f819050815f5260205f209050919050565b5f6020601f8301049050919050565b5f82821b905092915050565b5f600883026111b07fffffffffffffffffffffffffffffffffffffffffffffffffffffffffffffffff82611175565b6111ba8683611175565b95508019841693508086168417925050509392505050565b5f819050919050565b5f819050919050565b5f6111fe6111f96111f4846111d2565b6111db565b6111d2565b9050919050565b5f819050919050565b611217836111e4565b61122b61122382611205565b848454611181565b825550505050565b5f5f905090565b611242611233565b61124d81848461120e565b505050565b5b81811015611270576112655f8261123a565b600181019050611253565b5050565b601f8211156112b55761128681611154565b61128f84611166565b8101602085101561129e578190505b6112b26112aa85611166565b830182611252565b50505b505050565b5f82821c905092915050565b5f6112d55f19846008026112ba565b1980831691505092915050565b5f6112ed83836112c6565b9150826002028217905092915050565b61130783836110c0565b67ffffffffffffffff8111156113205761131f6110ca565b5b61132a8254611124565b611335828285611274565b5f601f831160018114611362575f8415611350578287013590505b61135a85826112e2565b8655506113c1565b601f19841661137086611154565b5f5b8281101561139757848901358255600182019150602085019450602081019050611372565b868310156113b457848901356113b0601f8916826112c6565b8355505b6001600288020188555050505b50505050505050565b6113d382610e87565b67ffffffffffffffff8111156113ec576113eb6110ca565b5b6113f68254611124565b611401828285611274565b5f60209050601f831160018114611432575f8415611420578287015190505b61142a85826112e2565b865550611491565b601f19841661144086611154565b5f5b8281101561146757848901518255600182019150602085019450602081019050611442565b868310156114845784890151611480601f8916826112c6565b8355505b6001600288020188555050505b505050505050565b5f82825260208201905092915050565b828183375f83830152505050565b5f6114c28385611499565b93506114cf8385846114a9565b6114d883610eaf565b840190509392505050565b5f6020820190508181035f8301526114fc8184866114b7565b9050939250505056fea264697066735822122057af033c756e00df6c333ad29f45ba983a40ac046dd20d717309c774c4f40a5b64736f6c634300081c0033",
  "linkReferences": {},
  "deployedLinkReferences": {},
  "immutableReferences": {},
  "inputSourceName": "project/contracts/UniversityRegistry.sol",
  "buildInfoId": "solc-0_8_28-1fe965bd909cdcef56757312bf0894bb2ea870d1"
}